:100B4F00504D00414D0054453D00252E3266000D9D
:100B5F000A2020002020002020202020000D0A0045
:100B6F000D0A2A2A2A2A2A2A2A2A2A2A2A2A2A2A13
:100B7F002A2A2A2A2A2A2A57454C434F4D452A2AE0
:100B8F002A2A2A2A2A2A2A2A2A2A2A2A2A2A2A2AB6
:100B9F002A2A2A2A2A2A2A2A2A200D0A20000D0A5E
:100BAF002A2A2A2A2A2A2A2A2A2A2A2A2A526561FC
:100BBF006C2054696D652057656174686572204DAE
:100BCF006F6E69746F72696E672053797374656D98
:100BDF002A2A2A2A2A2A2A2A2A2A0D0A000D0A2014
:100BEF004C4F4749442020202054494D4520202078
:100BFF002054454D504552415455524520204C49A3
:100C0F0047485420494E54454E534954590D0A00F4
:0713CD0001180002160000E8
:08134100C2B5D2B67F027E00A6
:10134900D3EF9400EE9400400F7DFADDFE7DF7DDCA
:08135900FEEF1F70EB1E80E89F
:011361002269
:10123100759850758920EF8EF012065E12511C20B0
:1012410012562580125870801256E100000012607B
:10125100758DFC800A8005758DFF8003758DFDD22B
:021261008E22DB
:0813C5008F993099FDC29922B5
:1012B3008B228A238924AB22AA23A92412058C60BA
:1012C300130524E5247002052314F912058CFF127B
:0512D30013C580E222BA
:0713D500D2A1D2A0C2A022A8
:0913BC00C2A1C2A0D2A1D2A0225C
:0211C700A90776
:1011C9007D077C00C2A1AF0574017E00A8070880D5
:1011D90005C333CE33CED8F9FFE9FBEF5B6003D308
:1011E9008001C392A0D2A1ED1D70011CBCFFD5BD29
:0211F900FFD223
:0111FB0022D1
:1012FD00E4FF7E07D2A130A00D7401A8060880027C
:10130D00C333D8FC4207C2A11EC3EE648094805043
:01131D00E3EC
:01131E0022AC
:10131F001211C7121335E4FF1211C712133512132E
:06132F00D57F901211C7EA
:0C133500C2A1D2A0D2A120A0FDC2A12222
:0713DC00C2A1D2A0D2A122A0
:101263008D2AAE07AA031213D51211C7121335AF75
:101273002A1211C7121335AF021211C712133512F6
:0912830013BC7F0A7E000213492E
:0E118D001213C57F3A1213C5AD1805187FA0C6
:04119B008D2AAA07E8
:10119F001213D51211C7121335AF2A1211C712131A
:1011AF00351213D5EA4401FF1211C712133512126B
:0711BF00FD1213DC1213BC4A
:0111C6002206
:0A13B2008F80C2B4121341C2B622AC
:10136200AC07ECC4540F2430FF121374EC540F2456
:0213720030FF4A
:0A1374008F80D2B4121341C2B622DA
:101399007F021213B27F381213B27F0E1213B27F7B
:0913A900061213B27F010213B217
:1012D8008B268A278928AB26AA27A92812058C607D
:1012E800130528E5287002052714F912058CFF124A
:0512F800137480E222E6
:040FA8008E2B8F2CD1
:100FAC00E4FBE52C452B70077F301213748019C3BA
:100FBC00E52B6480948050107F2D121374C3E4953C
:100FCC002CF52CE4952BF52BD3E52C9400E52B6418
:100FDC008094804029AE2BAF2C7C007D0A1205E456
:100FEC00ED2430FFAE030B742D2EF8A607AE2BAFFD
:100FFC002C7C007D0A1205E48E2B8F2C80CA1BC31F
:10100C00EB648094804013742D2BF8E6FF1213745C
:0A101C007F647E001213491B80E57B
:0110260022A7
:080CCB008F298E288D278C264D
:100CD300E4F52AFFFEFDFCAB29AA28A927A82612C2
:100CE30002A170077F30121374802AE4FFFEFDFC1B
:100CF300AB29AA28A927A8261202A150187F2D12D2
:100D03001374AF29AE28AD27AC2612031A8F298E90
:100D1300288D278C26AF29AE28AD27AC2612036970
:100D23008F2AEF3395E0FE120FA87F2E121374ACB7
:100D33002AEC120335A804A905AA06AB07AF29AE0E
:100D430028AD27AC26120006E4FBFA79C8784212D4
:0F0D530000FB1203698F2AEF3395E0FE020FA811
:10137E007B117D027FD01212637B587D017FD012CC
:0B138E0012637B45E4FD7FD002126378
:100E8C00E4FC7F801213B27D027FD012119B1213EF
:100E9C0062ECC4540F2430F508EC540F2430F509DF
:100EAC007F3A121374ECC394127F8840111213B260
:100EBC007BFF7A0B794F1212D8750E50800F1213DC
:100ECC00B27BFF7A0B79521212D8750E41750F4D09
:100EDC00E4FC7F831213B27D017FD012119B12139D
:100EEC0062ECC4540F2430F50AEC540F2430F50B8B
:100EFC007F3A121374E4FCFD7FD012119B12136223
:0F0F0C00ECC4540F2430F50CEC540F2430F50DC9
:010F1B0022B3
:1011FC0012132D7FAC1211C71213357F0212132755
:10120C007FA11211C71213357F2512131F7FA21253
:10121C0011C71213357F0A12131F7FEE1211C7125A
:05122C0013350213BCA4
:100C1F00E4F526F527FEFCF528F5297B027DAC7F50
:100C2F00901212637B257DA17F90121263E4FB7DEE
:100C3F00A27F90121263E4FB7DEE7F901212637D10
:100C4F00AA7F9012119B7526008F277DA87F901287
:100C5F00119B8F287DA97F9012119B8F29AF28EFB1
:100C6F003395E0FEAD29ED3395E0FCC3ED9FFDEC30
:100C7F009EFC120330C004C005C006C007AC29ECAF
:100C8F00120335A804A905AA06AB07D007D006D0D2
:100C9F0005D004120204C004C005C006C007AC266C
:100CAF00AD27E4120330E4FBFA798078BE12000A14
:0B0CBF00D003D002D001D00012000AC8
:010CCA002207
:10108C00E4FDFCC293C290D292D290C290D292D282
:10109C0090C290D292D290C290A2009292D290C260
:1010AC0090A2019292D290C290D292D290C290D23F
:1010BC0092D2907B0BC29030911574017E00A803E4
:1010CC00088005C333CE33CED8F94205EE4204D2A4
:1010DC00901BC3EB6480948050DBD293AE04AF05BD
:0110EC0022E1
:1010ED00E4F525F524F523F522120E8C120C1F8F35
:1010FD00258E248D238C227FC01213B27BFF7A0B99
:10110D0079551212D8AF25AE24AD23AC22120CCBDB
:10111D007529FF752A0B752B5985252F85242E854D
:10112D00232D85222C7B007A00791012073C7F64D9
:05113D007E00021349D1
:10102700E4FEF525F524F523F5227F20121374D26B
:1010370000C20112108CAD07AC06E41203307B002E
:101047007AF0797F7845120204E4FBFA79C878428E
:101057001200FB8F258E248D238C227529FF752A7C
:101067000B752B598F2F8E2E8D2D8C2C7B007A0094
:10107700791A12073CAF25AE24AD23AC22120CCB54
:051087007F2502137437
:100D6200E4F518F519AD180518AB087FA012126347
:100D7200AD180518AB097FA0121263AD180518ABA8
:100D82000A7FA0121263AD180518AB0B7FA01212D6
:100D920063AD180518AB0C7FA0121263AD180518CD
:100DA200AB0D7FA0121263AD180518AB0E7FA01217
:100DB2001263AD180518AB0F8015E519C3940550E1
:100DC20015AD180518AF19051974102FF8E6FB7F39
:100DD200A012126380E4E4F519E519C394055015D5
:100DE200AD180518AF190519741A2FF8E6FB7FA084
:060DF20012126380E422EE
:100DF800E4F519F5180517E517700205167BFF7A53
:100E08000B795E1212B3E517640A4516600AE517F6
:100E18002430FF1213C58005E4F516F5177F091273
:100E2800119212119212118D12119212118D12112A
:100E3800921211921211921213C57BFF7A0B7963E9
:100E48001212B3E519C39405500A05191211951227
:100E580013C580EF7F431213C5E4F5197BFF7A0BA6
:100E680079661212B3E519C39405500A05191211CF
:100E7800951213C580EF7F251213C57BFF7A0B7976
:040E88006C0212B333
:101142007F807E251212311213991211FC7BFF7AD5
:101152000B796F1212B37BFF7A0B79AD1212B37F48
:10116200801213B212137E7BFF7A0B79EC1212B348
:10117200120E8C1210ED12102720A7F47F327E007F
:0B118200121349120D62120DF880E5F7
:100003000203D5E86480F8E933E83360110460F053
:10001300ED33EC337009E8FCE9FDEAFEEBFF220463
:1000230060DED3EB9FEA9EE99DE8C2E78CF0C2F75E
:1000330095F0400CE8CCF8E9CDF9EACEFAEBCFFB2A
:100043001203A085D0F05804700320D5B3E80470E0
:10005300075002B2D50203DF92D5EC0460F7E4CC7B
:10006300C0E0C398F8603B94186008400DD0E0FBF3
:100073000203B7E4FBFAC9FC8028E830E406E4C9CC
:10008300FBE4CAFCE830E305E4C9CACBFCE8540747
:100093006010F8C3E913F9EA13FAEB13FBEC13FC52
:1000A300D8F130F52FC3E49CFCEF9BFFEE9AFEEDF5
:1000B30099FDD0E0FBEF4E4D4C701222DB0302039F
:1000C300DCEC2CFCEF33FFEE33FEED33FDED30E7DC
:1000D300EB0203B7EF2BFFEE3AFEED39FDD0E0FB69
:1000E30050130BBB00030203DFED13FDEE13FEEF12
:0800F30013FFEC13FC0203B73C
:1000FB00EC4D6011E8497017ED33EC3304600DE4FF
:10010B00FCFFFEFD22E933E8330470F80203D5123D
:10011B0003A058046009E4CC24815006285009023E
:10012B0003DF2840030203DCC0E0EB4A7044B980D4
:10013B0006D0E0FB0203CBEF4E701CBD8008EBFF3B
:10014B00EAFEE9FD80EBE98DF0A4FEE5F00201E4A7
:10015B00E9CDF9EAFEEBFFEF89F0A4FCE5F0CE89DF
:10016B00F0A42EFFE435F0CD89F0A42DFEE435F09C
:10017B008067EF4E7005BD80D780C3EF8BF0A4ACCA
:10018B00F0EE8BF0A42CFCE435F0F8EF8AF0A42C05
:10019B00E5F038FCE433CB8DF0A42CFCE5F03BF818
:1001AB00EE8AF0A42CFCE5F038F8E433CF89F0A408
:1001BB002CFCE5F038CF3400CE89F0A42FFFE5F00E
:1001CB003EFEE433C98DF0A42EFEE5F039CD8AF066
:1001DB00A42FFFE5F03EFEE43DFD33D0E0FB5007DE
:1001EB000BBB000F0203DFEC2CFCEF33FFEE33FEF7
:0601FB00ED33FD0203B725
:100201000203DFEC5D046005E8590470030203D5C5
:100211001203A0580460F6EC4860F2EC7004FDFE95
:10022100FF22C860DB2481C85009C39860025006D0
:100231000203DC9850CAF582E9294B4A7005AB826A
:100241000203CB75F0007C1A7880C3EF9BEE9AED28
:1002510099400DC3EF9BFFEE9AFEED99FDE842F048
:10026100DC23ACF0D0E0FFD0E0FED0E0FDAB82209B
:10027100E7101BEB60BAEC2CFCEF33FFEE33FEED25
:1002810033FD0203B7E803F830E705C0F075F0006D
:10029100EF2FFFEE33FEED33FD40B830E7C280AA09
:1002A10074F8CC6480CCC86480C8F58204604FC304
:1002B100EB9FF5F0EA9E42F0E99D42F0E89C45F0A3
:1002C100603C501DE5825FFFE582D313CB5BCBF42D
:1002D1002B5582FB50280ABA002409B90020088056
:1002E1001DE5825BFBE582D313CF5FCFF4C3132FF0
:1002F1005582FF50090EBE00050DBD00010CC3EB78
:100301009FF5F0EA9E42F0E99D42F0E89C45F060DD
:0903110007CC4820E701B3EC22FF
:10031A00ED33EC33600A047003BD8004ECB2E7FCF1
:01032A0022B0
:10032B0075F020800E75F010800575F0087D007E4D
:10033B00007F003392D530D50312061AEC334010F0
:10034B00EF33FFEE33FEED33FDEC33FCD5F0ED2256
:0E035B00E5F0247EA2D513CC92E7CDCEFF2292
:10036900EDD2E7CD33EC3392D524814006E4FFFE8C
:10037900FDFC22FCE4CFCECDCC24E0501174FF80EB
:10038900EDC3CC13CCCD13CDCE13CECF13CF047088
:07039900F030D5DE02061A68
:1006E000E53D2429F8E6053D2278263007027829E1
:1006F000E475F00112062802058C2000EB7F2ED253
:10070000008018EF540F2490D43440D4FF30040BF1
:10071000EF24BFB41A0050032461FFE53E600215C8
:100720003E0541E5417002054030070D7826E4752D
:10073000F001120628EF0205D202128C7403D207D0
:100740008003E4C207F53D8B268A278928E4F53E1D
:10075000F540F541E53E60077F2012071B80F575E7
:100760003FFFC201C200C202C203C205C206C208E4
:100770001206E9FF700D3007057F0012072CAF410C
:10078000AE4022B4255FC2D5C2041206E9FF24D0D0
:10079000B40A00501A75F00A783E30D50508B6FF45
:1007A0000106C6A426F620D5047002D20380D924FF
:1007B000CFB41A00EF5004C2E5D204020A19D201E4
:1007C00080C6D20080C0D20280BCD2D580BAD20509
:1007D00080B47F2012071B2002077401B53E004041
:1007E000F11206E0FF12071B020754D208D206805E
:1007F000951206E0FB1206E0FA1206E0F94A4B7089
:100800000679107A0B7BFF20022EE53E602A7E00DF
:100810008E827583001205A560060EEE653F70F0AE
:10082000C2D5EBC0E0EAC0E0E9C0E0EE120A79D040
:10083000E0F9D0E0FAD0E0FB12058CFF60AAEBC033
:10084000E0EAC0E0E9C0E012071BD0E02401F9D0E3
:10085000E03400FAD0E0FBE53F0460DCD53FD9800E
:1008600087D20280A2120A5C60F7E53F7001041291
:1008700003EAA93F600DE53F600914F53F120B0341
:10088000EF60F3EA30E702F404C3995077EAF42505
:100890003F0430E701E404F53F800D120A5C60C1BB
:1008A000EA053F253F1203EAEA783CF630E701E427
:1008B000253F04D53F0420050114120A79E4C0E065
:1008C000120B03783CE6601320E70714F6120703C7
:1008D000802204F6D0E014C0E07F00120703E53F59
:1008E00060071206FA153F800B3005031206FAD096
:1008F000E0020754D0E00480C5120A5C60A0E53F26
:10090000041203EA783CEAF6E53F200502600104A0
:050910002404120A7925
:1009150074FF04C0E0120B03120703E53F20050234
:1009250060031206FAD0E0B53FE87F4512070D785F
:100935003CE67F2B30E7047F2DF404C0E012071B53
:10094500D0E075F00A84C0F0120704D0E012070465
:10095500020754791080027908C206C2088008D2BD
:10096500D5790A8004790AC2D5E53F047002F53FBE
:10097500E4FAFDFEFF1206E0FC7B082001131206D7
:10098500E0FD7B1030000A1206E0FE1206E0FF7B58
:1009950020EC3382D592D55013C3E43000069FFF77
:1009A500E49EFEE42001039DFDE49CFCE4CBF8C23B
:1009B50001EC700CCFCECDCCE824F8F870F380179D
:1009C500C3EF33FFEE33FEED33FDEC33FCEB33FBCE
:1009D500994002FB0FD8E9EB300105F8D0E0C44897
:1009E500B201C0E00AEC4D4E4F78207B0070C2EAA0
:1009F500B53F0040BCC0E0120A7BD0F0D0E020013A
:100A050004C4C0E0C4B201C0F0120704D0F0D5F0B0
:100A1500EB02075412063807F15309585807C24C20
:100A250007BE42095C4F09644409644907D7430975
:100A35006A55089B4608F9450865470B305007C6B7
:100A45002D07CA2E07ED2B07CE2307EB200B192AFE
:100A5500078648000007E5E53FB4FF03753F06122A
:100A650006E0FC1206E0FD1206E0FE1206E0FF7845
:100A750035020419790AA2D5200314300509B910E5
:100A8500020404B9080104A2D5200602500104207D
:100A950002689202B53E005034C0E07F2030031951
:100AA5007F30A20272067205500F120AD2C202C22C
:100AB50006C205C2087F30800F300503E9C0E01289
:100AC500071B300503D0E0F9D0E0B53ECC30051763
:100AD5007F30B9100C12071B7F583004077F7880D0
:100AE50003B9080312071B3002057F2D02071B7F80
:100AF500202008F87F2B2006F322920280CF7F006A
:100B0500B4070050052435F8E6FF22286E756C6C95
:100B15002900D2011206E03001F8C201783E30D535
:100B25000108F60207862D504349581206E02403B2
:100B3500B405004001E4900B2B9312070C743A1294
:0A0B4500070CD203753E04020958A4
:1003A000E9D2E7C933E833F892D5EDD2E7CD33ECA3
:0703B00033FC5002B2D5221C
:1003B700EC30E7100FBF000C0EBE00080DBD0004A7
:1003C7000BEB6014A2D5EB13FCED92E7FD2274FF53
:1003D700FCFDFEFF22E480F8A2D574FF13FC7D80AC
:0303E700E480EFC0
:1003EA00F920E72824F950037907E4F42402FB18DA
:1003FA00DBFDE624FB5014E9600DE4F618E604F68A
:0F040A00B40A08E4F6D9F57401F60A22C2D52225
:10041900ED33EC3392D5FA602AB4FF33EDC2E77BB2
:10042900FF60067A04793EE4227A04794720D504EC
:100439007A047942224E614E002B494E46002D49DD
:100449004E4600E47A08F608DAFC7B00740722E8D5
:10045900C0E0ECC0E0EDC0E0EEC0E0EFC0E0EA755E
:10046900F010A4CAABF075F04DA42BFBE435F0FCF9
:10047900EA2410FAEB34C5FBEC34D9FCEDC2E7FFF2
:1004890075F056A4F42411C5F0F434C58FF0A42AEC
:10049900E5F03BE43CF620E71412054CD0E0FFD030
:1004A900E0FED0E0FDD0E0FC1202048014F4041256
:1004B900054CD0E0FFD0E0FED0E0FDD0E0FC12001A
:1004C900FBD0E0F8E6FAEDD2E7CD33EC332482FB3A
:1004D900E4C3CF33CFCE33CECD33CD33DBF37B077C
:1004E90075F00A846004F6081B0AE5F0F6088FF037
:1004F900740AA4FFACF08EF0740AA42CFEACF05080
:10050900010C8DF0740AA42CFDE435F0F608DBDE4D
:0305190074072242
:10051C003F8000004120000042C80000447A0000E7
:10052C00461C400047C35000497424004B18968069
:10053C004CBEBC205A0E1BCA6753C21C749DC5AE60
:10054C00FB60065407601C232312057AEB543860B9
:10055C00091205661205751200FBECF8EDF9EEFABE
:10056C00EFCB22EB12057580F1543803241C900557
:10057C001CFE93FC0EEE93FD0EEE930ECE93FF221B
:03000000020F1CD0
:0C0F1C00787FE4F6D8FD758141020F6378
:10058C00BB010689828A83E0225002E722BBFE026D
:09059C00E32289828A83E49322A0
:1005A500BB010CE58229F582E5833AF583E022500B
:1005B50006E92582F8E622BBFE06E92582F8E22255
:0D05C500E58229F582E5833AF583E493226F
:1005D200BB010689828A83F0225002F722BBFE0108
:0205E200F32202
:1005E400C2D5EC30E709B2D5E4C39DFDE49CFCEE32
:1005F40030E715B2D5E4C39FFFE49EFE12068BC319
:10060400E49DFDE49CFC800312068B30D507C3E413
:060614009FFFE49EFE22A0
:0E061A00C3E49FFFE49EFEE49DFDE49CFC22F1
:10062800FAE6FB0808E6F925F0F618E6CA3AF622D3
:10063800D083D082F8E4937012740193700DA3A351
:1006480093F8740193F5828883E473740293686065
:06065800EFA3A3A380DF65
:10065E00D083D082F8E4937012740193700DA3A32B
:10066E0093F8740193F5828883E473740293B5F062
:0D067E00067403936860E9A3A3A3A380D8CA
:10128C00EFB40A07740D121297740A309811A899CA
:10129C00B8130CC2983098FDA899C298B811F630C2
:0712AC0099FDC299F599229A
:100F2800021142E493A3F8E493A34003F68001F28C
:100F380008DFF48029E493A3F85407240CC8C333CA
:100F4800C4540F4420C8834004F456800146F6DF99
:100F5800E4800B01020408102040809013CDE47E49
:100F6800019360BCA3FF543F30E509541FFEE4938E
:100F7800A360010ECF54C025E060A840B8E493A355
:100F8800FAE493A3F8E493A3C8C582C8CAC583CA80
:100F9800F0A3C8C582C8CAC583CADFE9DEE780BE38
:0113D4000018
:10068B00BC000BBE0029EF8DF084FFADF022E4CC53
:10069B00F875F008EF2FFFEE33FEEC33FCEE9DEC1C
:1006AB00984005FCEE9DFE0FD5F0E9E4CEFD22ED62
:1006BB00F8F5F0EE8420D21CFEADF075F008EF2FAC
:1006CB00FFED33FD4007985006D5F0F222C398FD9D
:0506DB000FD5F0EA223A
:00000001FF
