:08019B00C2B5D2B67F027E005E
:1001A300D3EF9400EE9400400F7DFADDFE7DF7DD82
:0801B300FEEF1F70EB1E80E857
:0101BB002221
:0A01E1008F80C2B412019BC2B62247
:0A01EB008F80D2B412019BC2B6222D
:1001BC007F021201E17F381201E17F0E1201E17F13
:0901CC00061201E17F010201E1CC
:04008E008E088F0940
:10009200E4FBE5094508700C7F811201E17F301213
:1000A20001EB80FEC3E5086480948050107F2D121E
:1000B20001EBC3E49509F509E49508F508D3E509D0
:1000C2009400E508648094804029AE08AF097C0062
:1000D2007D0A120003ED2430FFAE030B740A2EF8E2
:1000E200A607AE08AF097C007D0A1200038E088FB6
:1000F2000980CA1BC3EB648094804013740A2BF8F6
:0F010200E6FF1201EB7F647E001201A31B80E574
:0101110022CB
:10011200E4FDFCC293C290D292D290C290D292D20B
:1001220090C290D292D290C290A2009292D290C2E9
:1001320090A2019292D290C290D292D290C290D2C8
:1001420092D2907B0BC29030911574017E00A8036D
:10015200088005C333CE33CED8F94205EE4204D22D
:10016200901BC3EB6480948050DBD293AE04AF0546
:01017200226A
:100173001201BC7F801201E1C200D2011201128F71
:10018300828E837F011201E1AF82AE8312008E7FE4
:08019300647E001201A380E06C
:030000000201D525
:0C01D500787FE4F6D8FD758120020173EC
:10000300C2D5EC30E709B2D5E4C39DFDE49CFCEE18
:1000130030E715B2D5E4C39FFFE49EFE120039C357
:10002300E49DFDE49CFC800312003930D507C3E452
:060033009FFFE49EFE2287
:10003900BC000BBE0029EF8DF084FFADF022E4CCAB
:10004900F875F008EF2FFFEE33FEEC33FCEE9DEC74
:10005900984005FCEE9DFE0FD5F0E9E4CEFD22EDBA
:10006900F8F5F0EE8420D21CFEADF075F008EF2F04
:10007900FFED33FD4007985006D5F0F222C398FDF5
:050089000FD5F0EA2292
:00000001FF
