:10020C000D0A20456E7465722050617373776F729E
:10021C0064203A000D0A20436F727265637420509B
:10022C00617373776F7264000D0A204163636573A9
:10023C0073204772616E74656421000D0A20577239
:10024C006F6E672050617373776F7264003130305A
:07025C003800000000000063
:1002E000D3EF9400EE9400400F7DFADDFE7DF7DD44
:0802F000FEEF1F70EB1E80E819
:0102F80022E3
:080311008F993099FDC2992279
:080319003098FDC298AF992253
:1002B9008B158A168917AB150517E517AA1670024B
:1002C900051614F91200F9600DAA16A9171200F9FA
:0702D900FF12031180E02277
:0C02F900758920759850758DFDD28E22FD
:060263008B158A168917B5
:10026900E4FFAB15AA16A9178F8275830012011234
:10027900FE6014AB18AA19A91A8F8275830012019E
:1002890012B506030F80DBAB18AA19A91A8F82755C
:100299008300120112FEAB15AA16A9178F82758366
:0F02A90000120112B50604E4FEFF227E007F0161
:0102B8002223
:10013F0078087C007D007BFF7A0279597E007F056D
:10014F001200D3780D7C007D007BFF7A02795E7EF2
:10015F00007F051200D3E4FCF512F513F51412021B
:10016F00F9E4F512FCF50D7BFF7A02790C1202B956
:10017F00120319740D2CF8A607740D2CF8E6FEB4B3
:10018F00630D7F081203117F201203111C801EEED6
:10019F00B40D04E4F68028E6FF1203117F647E009D
:1001AF001202E07F081203117F2A1203110CECC315
:1001BF00940440BC740D2CF8E4F61203198F1475D7
:1001CF001800751900751A0D7B007A007908120254
:1001DF00638F12E5126005E514B40D157BFF7A02EB
:1001EF0079201202B97BFF7A0279341202B9020127
:0D01FF00707BFF7A0279471202B90201708D
:03000000020305F3
:0C030500787FE4F6D8FD75811A02013FF4
:10000300E709F608DFFA8046E709F208DFFA803EDF
:1000130088828C83E709F0A3DFFA8032E309F608CC
:10002300DFFA8078E309F208DFFA807088828C8334
:10003300E309F0A3DFFA806489828A83E0A3F608E8
:10004300DFFA805889828A83E0A3F208DFFA804CC2
:1000530080D280FA80C680D4806980F28033801099
:1000630080A680EA809A80A880DA80E280CA803302
:1000730089828A83ECFAE493A3C8C582C8CCC5837A
:10008300CCF0A3C8C582C8CCC583CCDFE9DEE7804A
:100093000D89828A83E493A3F608DFF9ECFAA9F0C9
:1000A300EDFB2289828A83ECFAE0A3C8C582C8CC1F
:1000B300C583CCF0A3C8C582C8CCC583CCDFEADE38
:1000C300E880DB89828A83E493A3F208DFF980CC9A
:1000D30088F0EF60010E4E60C388F0ED2402B40493
:1000E3000050B9F582EB2402B4040050AF2323453A
:0600F3008223900053730C
:1000F900BB010689828A83E0225002E722BBFE0205
:09010900E32289828A83E4932237
:10011200BB010CE58229F582E5833AF583E02250A2
:1001220006E92582F8E622BBFE06E92582F8E222EC
:0D013200E58229F582E5833AF583E4932206
:00000001FF
