:1002E8000D0A20456E746572207468652073656315
:1002F8006F6E647320203A000D0A20456E74657293
:1003080020746865204D696E7574652020203A0058
:100318000D0A20456E7465722074686520486F75F3
:100328007220202020203A000D0A20456E74657244
:10033800207468652044415920202020203A000D6F
:100348000A20456E7465722074686520446174657E
:100358002020203A000D0A20456E746572207468CA
:1003680065204D6F6E7468733A000D0A20456E74EF
:1003780065722074686520594541522020203A0052
:10038800414D0053554E444159004D4F4E4441593B
:1003980000545545534441590057454E455344412F
:1003A8005900544855525344415900465249444112
:1003B80059005341545552444159004F5554204F08
:0603C800462044415900EB
:08063F00C2B5D2B67F027E00B5
:10064700D3EF9400EE9400400F7DFADDFE7DF7DDD9
:08065700FEEF1F70EB1E80E8AE
:01065F002278
:10055300759850758920EF8EF012041D05731C20C9
:1005630005782580057A70800578E1000000058212
:10057300758DFC800A8005758DFF8003758DFDD216
:020583008E22C6
:0806C8008F993099FDC29922BF
:0806D0003098FDC298AF992299
:1005D3008B1E8A1F8920AB1EAA1FA9201203CE607F
:1005E300130520E5207002051F14F91203CEFF1234
:0505F30006C880E222B1
:04049F008E088F092B
:1004A300E4FBE509450870077F301206C880FEC3E8
:1004B300E5086480948050107F2D1206C8C3E4952C
:1004C30009F509E49508F508D3E5099400E50864FE
:1004D3008094804029AE08AF097C007D0A1203E7AF
:1004E300ED2430FFAE030B740A2EF8A607AE08AF57
:1004F300097C007D0A1203E78E088F0980CA1BC39B
:10050300EB648094804013740A2BF8E6FF1206C84C
:0A0513007F647E001206471B80E59E
:01051D0022BB
:0A06B5008F80C2B412063FC2B622C5
:100660008F1DE51DC4540F2430FF120674E51D5480
:040670000F2430FF24
:0A0674008F80D2B412063FC2B622F6
:10067E007F021206B57F381206B57F0E1206B57FC1
:09068E00061206B57F010206B553
:1005F8008B1E8A1F8920AB1EAA1FA9201203CE605A
:10060800130520E5207002051F14F91203CEFF120E
:05061800067480E222DF
:0706D800D2A1D2A0C2A022B2
:0906BF00C2A1C2A0D2A1D2A02266
:02051E00A9072B
:100520007D077C00C2A1AF0574017E00A80708808A
:1005300005C333CE33CED8F9FFE9FBEF5B6003D3BD
:100540008001C392A0D2A1ED1D70011CBCFFD5BDDE
:02055000FFD2D8
:010552002286
:10061D00E4FF7E07D2A130A00D7401A80608800268
:10062D00C333D8FC4207C2A11EC3EE648094805030
:01063D00E3D9
:01063E002299
:060697001206D812051E38
:0C069D00C2A1D2A0D2A120A0FDC2A122C7
:0706DF00C2A1D2A0D2A122AA
:05058500AB1BFA7FD062
:10058A00AE078B82AA05120697AF0212051E120643
:10059A009DAF8212051E12069D1206BF7F0A7E00BB
:0305AA00020647FF
:0405AD008D1EAA07EE
:1005B100120697AF1E12051E12069D1206D8EA44B6
:1005C10001FF12051E12069D12061D1206DF1206FC
:0105D100BF6A
:0105D2002206
:100003007F807E2512055312067E7BFF7A0279E8F4
:100013001205D31206D08F1CE51C640D600EE51D7E
:1000230075F00AA4251C24D0F51D80E7E51D75F0A5
:100033000A8475F010A4FFAEF0E51D75F00A847C08
:1000430000EF25F0F51BEC3EF51AAB1BFAE4FD7F40
:10005300D012058A7BFF7A0379001205D31206D0EA
:100063008F1CE51C640D600EE51D75F00AA4251CAC
:1000730024D0F51D80E7E51D75F00A8475F010A402
:10008300FFAEF0E51D75F00A847C00EF25F0F51B4B
:10009300EC3EF51A7D011205857BFF7A0379181270
:1000A30005D31206D08F1CE51C640D600EE51D758B
:1000B300F00AA4251C24D0F51D80E7E51D75F00A80
:1000C3008475F010A4FFAEF0E51D75F00A847C0082
:1000D300EF25F0F51BEC3EF51A7D021205857BFF3B
:1000E3007A0379301205D31206D08F1CE51C640DF8
:1000F300600EE51D75F00AA4251C24D0F51D80E7CC
:10010300E51D75F00A8475F010A4FFAEF0E51D75CA
:10011300F00A847C00EF25F0F51BEC3EF51AAB1BCF
:10012300FA7D037FD012058A7BFF7A037947120594
:10013300D31206D08F1CE51C640D600EE51D75F00F
:100143000AA4251C24D0F51D80E7E51D75F00A845B
:1001530075F010A4FFAEF0E51D75F00A847C00EF86
:1001630025F0F51BEC3EF51AAB1BFA7D047FD0128C
:10017300058A7BFF7A03795D1205D31206D08F1CA3
:10018300E51C640D600EE51D75F00AA4251C24D042
:10019300F51D80E7E51D75F00A8475F010A4FFAE28
:1001A300F0E51D75F00A847C00EF25F0F51BEC3EAD
:1001B300F51AAB1BFA7D057FD012058A7BFF7A0304
:1001C30079721205D31206D08F1CE51C640D600EE4
:1001D300E51D75F00AA4251C24D0F51D80E7E51D57
:1001E30075F00A8475F010A4FFAEF0E51D75F00AF2
:1001F300847C00EF25F0F51BEC3EF51AAB1BFA7D72
:10020300067FD012058A7F801206B57D027FD01249
:1002130005AD1206607F3A1206747D017FD0120588
:10022300AD1206607F3A120674E4FD7FD01205AD6D
:100233001206607BFF7A0379881205F87FC01206E5
:10024300B57D047FD01205AD1206607F2F120674B0
:100253007D057FD01205AD1206607F2F1206747DD7
:10026300067FD01205AD1206607D037FD01205AD67
:100273008F1DE51D14B40700505F90028B75F003CA
:10028300A4C58325F0C583730202A00202A802025B
:10029300B00202B80202C00202C80202D07BFF7A97
:1002A30003798B802E7BFF7A03799280267BFF7AFA
:1002B300037999801E7BFF7A0379A180167BFF7AED
:1002C3000379AA800E7BFF7A0379B380067BFF7ADA
:1002D3000379BA1205F80202097BFF7A0379C31284
:0502E30005F80202090C
:030000000206A94C
:0C06A900787FE4F6D8FD75812002000384
:1003CE00BB010689828A83E0225002E722BBFE022D
:0903DE00E32289828A83E4932260
:1003E700C2D5EC30E709B2D5E4C39DFDE49CFCEE31
:1003F70030E715B2D5E4C39FFFE49EFE12044AC35B
:10040700E49DFDE49CFC800312044A30D507C3E455
:060417009FFFE49EFE229F
:10041D00D083D082F8E4937012740193700DA3A36E
:10042D0093F8740193F5828883E473740293B5F0A5
:0D043D00067403936860E9A3A3A3A380D80D
:10044A00BC000BBE0029EF8DF084FFADF022E4CC96
:10045A00F875F008EF2FFFEE33FEEC33FCEE9DEC5F
:10046A00984005FCEE9DFE0FD5F0E9E4CEFD22EDA5
:10047A00F8F5F0EE8420D21CFEADF075F008EF2FEF
:10048A00FFED33FD4007985006D5F0F222C398FDE0
:05049A000FD5F0EA227D
:00000001FF
