:08002800C2B5D2B67F027E00D2
:10003000D3EF9400EE9400400F7DFADDFE7DF7DDF6
:08004000FEEF1F70EB1E80E8CB
:010048002295
:0A0082008F80C2B4120028C2B6221B
:0A008C008F80D2B4120028C2B62201
:100062007F021200827F381200827F061200827F96
:040072000102008205
:100003008B088A09890AAB08AA09A90A1200496060
:1000130013050AE50A7002050914F9120049FF12D3
:05002300008C80E222C8
:0800960012006212008C80FED2
:0300000002007685
:0C007600787FE4F6D8FD75810A02009640
:10004900BB010689828A83E0225002E722BBFE02B5
:09005900E32289828A83E49322E8
:00000001FF
