:08016200C2B5D2B67F027E0097
:10016A00D3EF9400EE9400400F7DFADDFE7DF7DDBB
:08017A00FEEF1F70EB1E80E890
:01018200225A
:0A01BC008F80C2B4120162C2B622A5
:0A01C6008F80D2B4120162C2B6228B
:100183007F021201BC7F381201BC7F0E1201BC7FBB
:09019300061201BC7F010201BC4F
:10013D008B1A8A1B891CAB1AAA1BA91C12000360FF
:10014D0013051CE51C7002051B14F9120003FF12A8
:05015D0001C680E22252
:0400A7008E088F0927
:1000AB00E4FBFA7F801201BCE509450870117F81E2
:1000BB001201BC7F0C1201BC7F301201C680FEC343
:1000CB00E5086480948050157F801201BC7F2D124F
:1000DB0001C6C3E49509F509E49508F508D3E509CC
:1000EB009400E50864809480402CAE08AF097C0036
:1000FB007D0A12001CAA05EA2430FFAE030B740A1A
:10010B002EF8A607E4FAAE08AF09FC7D0A12001C14
:10011B008E088F0980C71BEBC394004013740A2B06
:10012B00F8E6FF1201C67F647E0012016A1B80E7AE
:02013B0080FE44
:10019C001201837F0C1201BC7F801201BC7F857E13
:0401AC00FF0200A7A7
:030000000201B04A
:0C01B000787FE4F6D8FD75811C02019CEC
:10000300BB010689828A83E0225002E722BBFE02FB
:09001300E32289828A83E493222E
:10001C00C2D5EC30E709B2D5E4C39DFDE49CFCEEFF
:10002C0030E715B2D5E4C39FFFE49EFE120052C325
:10003C00E49DFDE49CFC800312005230D507C3E420
:06004C009FFFE49EFE226E
:10005200BC000BBE0029EF8DF084FFADF022E4CC92
:10006200F875F008EF2FFFEE33FEEC33FCEE9DEC5B
:10007200984005FCEE9DFE0FD5F0E9E4CEFD22EDA1
:10008200F8F5F0EE8420D21CFEADF075F008EF2FEB
:10009200FFED33FD4007985006D5F0F222C398FDDC
:0500A2000FD5F0EA2279
:00000001FF
