:08015500C2B5D2B67F027E00A4
:10015D00D3EF9400EE9400400F7DFADDFE7DF7DDC8
:08016D00FEEF1F70EB1E80E89D
:010175002267
:0A01B1008F80C2B4120155C2B622BD
:0A01BB008F80D2B4120155C2B622A3
:100176007F021201B17F381201B17F0E1201B17FE9
:09018600061201B17F010201B172
:100130008B1A8A1B891CAB1AAA1BA91C120003600C
:1001400013051CE51C7002051B14F9120003FF12B5
:0501500001BB80E2226A
:0400A7008E088F0927
:1000AB00E4FBE509450870117F811201B17F0C1249
:1000BB0001B17F301201BB80FEC3E50864809480E0
:1000CB0050107F2D1201BBC3E49509F509E4950887
:1000DB00F508D3E5099400E508648094804029AEC7
:1000EB0008AF097C007D0A12001CED2430FFAE0323
:1000FB000B740A2EF8A607AE08AF097C007D0A1216
:10010B00001C8E088F0980CA1BC3EB64809480404F
:10011B0013740A2BF8E6FF1201BB7F647E001201F9
:04012B005D1B80E5F3
:01012F0022AD
:10018F001201767F0C1201B17F801201B17F7D7E4B
:06019F00001200A780FE23
:030000000201A555
:0C01A500787FE4F6D8FD75811C02018F04
:10000300BB010689828A83E0225002E722BBFE02FB
:09001300E32289828A83E493222E
:10001C00C2D5EC30E709B2D5E4C39DFDE49CFCEEFF
:10002C0030E715B2D5E4C39FFFE49EFE120052C325
:10003C00E49DFDE49CFC800312005230D507C3E420
:06004C009FFFE49EFE226E
:10005200BC000BBE0029EF8DF084FFADF022E4CC92
:10006200F875F008EF2FFFEE33FEEC33FCEE9DEC5B
:10007200984005FCEE9DFE0FD5F0E9E4CEFD22EDA1
:10008200F8F5F0EE8420D21CFEADF075F008EF2FEB
:10009200FFED33FD4007985006D5F0F222C398FDDC
:0500A2000FD5F0EA2279
:00000001FF
