:1002A7000D0A20456E7465722050617373776F7203
:1002B700643A000D0A20436F7272656374205061BF
:1002C7007373776F7264000D0A20416363657373FC
:1002D700204772616E7465642E21000D0A205772E3
:1002E7006F6E672050617373776F7264000D0A2019
:0F02F7004661696C65642E2E210031323334006C
:10035D00D3EF9400EE9400400F7DFADDFE7DF7DDC6
:08036D00FEEF1F70EB1E80E89B
:010375002265
:10030600759850758920EF8EF012013F03261C2048
:10031600032B2580032D7080032BE100000003359D
:10032600758DFC800A8005758DFF8003758DFDD265
:020336008E2215
:080382008F993099FDC2992208
:08038A003098FDC298AF9922E2
:100338008B178A188919AB17AA18A9191200F9601E
:10034800130519E5197002051814F91200F9FF12BE
:05035800038280E22297
:060243008B178A188919CF
:10024900E4FFFEAB17AA18A9198F828E8312011237
:100259006025AB1AAA1BA91C8F828E83120112FD7D
:10026900AB17AA18A9198F828E83120112B5050737
:100279000FBF00010E80CCAB1AAA1BA91C8F828E5E
:1002890083120112FDAB17AA18A9198F828E831246
:0D0299000112B50504E4FEFF227E007F0186
:0102A6002235
:10016C00780D7C007D007BFF7A0379017E007F0592
:10017C001200D3E4F512FCF513F514F515751608F9
:10018C007F807E251203067BFF7A0279A712033843
:10019C00E4FC12038A74082CF8A60774082CF8E601
:1001AC00FEB46713AF161203821C7F20120382AFBA
:1001BC00161203821C801CEEB40D028022E6FF1284
:1001CC0003827F647E0012035D7F081203827F2A04
:1001DC001203820CECC3940540B812038A8F157479
:1001EC00082CF8E4F6F51A751B00751C0DFB7A004B
:1001FC0079081202438F14E514701DE515B40D181F
:10020C00E4F5137BFF7A0279BA1203387BFF7A028A
:10021C0079CE12033802019305137BFF7A0279E23F
:10022C00120338E513640360030201937BFF7A0227
:07023C0079F412033880FE83
:0300000002037682
:0C037600787FE4F6D8FD75811C02016C54
:10000300E709F608DFFA8046E709F208DFFA803EDF
:1000130088828C83E709F0A3DFFA8032E309F608CC
:10002300DFFA8078E309F208DFFA807088828C8334
:10003300E309F0A3DFFA806489828A83E0A3F608E8
:10004300DFFA805889828A83E0A3F208DFFA804CC2
:1000530080D280FA80C680D4806980F28033801099
:1000630080A680EA809A80A880DA80E280CA803302
:1000730089828A83ECFAE493A3C8C582C8CCC5837A
:10008300CCF0A3C8C582C8CCC583CCDFE9DEE7804A
:100093000D89828A83E493A3F608DFF9ECFAA9F0C9
:1000A300EDFB2289828A83ECFAE0A3C8C582C8CC1F
:1000B300C583CCF0A3C8C582C8CCC583CCDFEADE38
:1000C300E880DB89828A83E493A3F208DFF980CC9A
:1000D30088F0EF60010E4E60C388F0ED2402B40493
:1000E3000050B9F582EB2402B4040050AF2323453A
:0600F3008223900053730C
:1000F900BB010689828A83E0225002E722BBFE0205
:09010900E32289828A83E4932237
:10011200BB010CE58229F582E5833AF583E02250A2
:1001220006E92582F8E622BBFE06E92582F8E222EC
:0D013200E58229F582E5833AF583E4932206
:10013F00D083D082F8E4937012740193700DA3A34F
:10014F0093F8740193F5828883E473740293B5F086
:0D015F00067403936860E9A3A3A3A380D8EE
:00000001FF
