:10000300759850758920EF8EF012003500231C205F
:1000130000282580002A70800028E10000000032BB
:10002300758DFC800A8005758DFF8003758DFDD26B
:020033008E221B
:08007C008F993099FDC2992211
:080084003098FDC298AF9922EB
:0E0062007F807E251200037F4112007C80FE0D
:030000000200708B
:0C007000787FE4F6D8FD7581070200627D
:10003500D083D082F8E4937012740193700DA3A35A
:1000450093F8740193F5828883E473740293B5F091
:0D005500067403936860E9A3A3A3A380D8F9
:00000001FF
