:08024500C2B5D2B67F027E00B3
:10024D00D3EF9400EE9400400F7DFADDFE7DF7DDD7
:08025D00FEEF1F70EB1E80E8AC
:010265002276
:0A02B9008F80C2B4120245C2B622C3
:10026600AC07ECC4540F2430FF120278EC540F2470
:0202760030FF57
:0A0278008F80D2B4120245C2B622F4
:100282007F021202B97F381202B97F0E1202B97FC1
:09029200061202B97F010202B953
:1001DB008B1A8A1B891CAB1AAA1BA91C1200036061
:1001EB0013051CE51C7002051B14F9120003FF120A
:0501FB00027880E22201
:0400A7008E088F0927
:1000AB00E4FBE5094508700C7F811202B97F301221
:1000BB00027880FEC3E5086480948050107F2D1277
:1000CB000278C3E49509F509E49508F508D3E50929
:1000DB009400E508648094804029AE08AF097C0049
:1000EB007D0A12001CED2430FFAE030B740A2EF8B0
:1000FB00A607AE08AF097C007D0A12001C8E088F84
:10010B000980CA1BC3EB648094804013740A2BF8DC
:0F011B00E6FF1202787F647E0012024D1B80E522
:01012A0022B2
:0702CC00D2A1D2A0C2A022C2
:0902C300C2A1C2A0D2A1D2A02266
:02018000A907CD
:100182007D077C00C2A1AF0574017E00A80708802C
:1001920005C333CE33CED8F9FFE9FBEF5B6003D35F
:1001A2008001C392A0D2A1ED1D70011CBCFFD5BD80
:0201B200FFD27A
:0101B4002228
:10022300E4FF7E07D2A130A00D7401A80608800266
:10023300C333D8FC4207C2A11EC3EE64809480502E
:01024300E3D7
:010244002297
:06029B001202CC120180EA
:0C02A100C2A1D2A0D2A120A0FDC2A122C7
:0702D300C2A1D2A0D2A122BA
:10020000AE078B82AA0512029BAF02120180120276
:10021000A1AF821201801202A11202C37F0A7E00E6
:0302200002024D8A
:0401B5008D1DAA07EB
:1001B90012029BAF1D1201801202A11202CCEA4465
:1001C90001FF1201801202A11202231202D31202AC
:0101D900C362
:0101DA002202
:10012B001202827B237A007D027FD01202007B5960
:10013B007A007D017FD01202007B507A00E4FD7FB4
:10014B00D01202007D027FD01201B5AC077F801266
:10015B0002B91202687F3A1202787D017FD0120138
:10016B00B51202667F3A120278E4FD7FD01201B518
:05017B0012026680CFB6
:030000000202AD4C
:0C02AD00787FE4F6D8FD75811D02012B5E
:10000300BB010689828A83E0225002E722BBFE02FB
:09001300E32289828A83E493222E
:10001C00C2D5EC30E709B2D5E4C39DFDE49CFCEEFF
:10002C0030E715B2D5E4C39FFFE49EFE120052C325
:10003C00E49DFDE49CFC800312005230D507C3E420
:06004C009FFFE49EFE226E
:10005200BC000BBE0029EF8DF084FFADF022E4CC92
:10006200F875F008EF2FFFEE33FEEC33FCEE9DEC5B
:10007200984005FCEE9DFE0FD5F0E9E4CEFD22EDA1
:10008200F8F5F0EE8420D21CFEADF075F008EF2FEB
:10009200FFED33FD4007985006D5F0F222C398FDDC
:0500A2000FD5F0EA2279
:00000001FF
