:10032000456E7465722050617373776F7264004517
:100330006E746572204F7074696F6E00436F7272D5
:100340006563742050617373776F726400416363F7
:10035000657373204772616E7465642E2100577255
:100360006F6E672050617373776F726400466169C6
:100370006C65642E2E2100313233413435364237DC
:0C0380003839434430453D3132333400FD
:08041500C2B5D2B67F027E00E1
:10041D00D3EF9400EE9400400F7DFADDFE7DF7DD05
:08042D00FEEF1F70EB1E80E8DA
:0104350022A4
:0A045B008F80C2B4120415C2B6224D
:0A0465008F80D2B4120415C2B62233
:100436007F0212045B7F3812045B7F0E12045B7F1F
:090446000612045B7F0102045B55
:1003F0008B178A188919AB17AA18A9191200F96066
:10040000130519E5197002051814F91200F9FF1205
:05041000046580E222FA
:10026900C2A7C2A6C2A5C2A4D2A3D2A2D2A1D2A019
:10027900A2A182A082A282A340F67F647E0012041A
:100289001DC2A4D2A7D2A6D2A5A2A182A082A2826F
:10029900A34004E4FB8040C2A5D2A7D2A6D2A4A25F
:1002A900A182A082A282A340047B01802AC2A6D295
:1002B900A7D2A5D2A4A2A182A082A282A340047B34
:1002C900028014C2A7D2A6D2A5D2A4A2A182A082DA
:1002D900A282A340027B0320A004E4FC801320A196
:1002E900047C01800C20A2047C02800520A3027CEE
:1002F90003A2A182A082A282A350F6EB25E025E009
:100309002477F582E43403F583E5822CF582E4351C
:0603190083F583E493FF6D
:01031F0022BB
:06038C008B178A18891985
:10039200E4FFFEAB17AA18A9198F828E83120112ED
:1003A2006025AB1AAA1BA91C8F828E83120112FD33
:1003B200AB17AA18A9198F828E83120112B50507ED
:1003C2000FBF00010E80CCAB1AAA1BA91C8F828E14
:1003D20083120112FDAB17AA18A9198F828E8312FC
:0D03E2000112B50504E4FEFF227E007F013C
:0103EF0022EB
:10013F00780D7C007D007BFF7A0379877E007F0539
:10014F001200D3E4F512F513F514F515F516120494
:10015F00367F0C12045BE4F512F5137F8012045BFB
:10016F007F0C12045B7BFF7A0379201203F07FC0B0
:10017F0012045BE4F51312026974082513F8A6073D
:10018F0074082513F8E6FCB443157F1012045B7F47
:10019F002012046515137F1012045B1513801CECDD
:1001AF00B43D02801FE6FF1204657FF47E01120446
:1001BF001D7F1012045B7F2A1204650513E513C31C
:1001CF00940440B274082513F8E4F6F51A751B0071
:1001DF00751C0DFB7A00790812038C8F127F0112A8
:1001EF00045B7F647E0012041D7BFF7A03792F125C
:1001FF0003F07FC012045B1202698F16E512702A9A
:10020F00E516B43D257F8012045B7BFF7A03793CB2
:10021F001203F07FF47E0112041D7F0112045B7B39
:10022F00FF7A03794D1203F080FE05147F801204CC
:10023F005B7BFF7A03795E1203F07FE87E03120483
:10024F001DE514640360030201657F0112045B7BEB
:0A025F00FF7A03796D1203F080FEB0
:0300000002044FA8
:0C044F00787FE4F6D8FD75811C02013FA7
:10000300E709F608DFFA8046E709F208DFFA803EDF
:1000130088828C83E709F0A3DFFA8032E309F608CC
:10002300DFFA8078E309F208DFFA807088828C8334
:10003300E309F0A3DFFA806489828A83E0A3F608E8
:10004300DFFA805889828A83E0A3F208DFFA804CC2
:1000530080D280FA80C680D4806980F28033801099
:1000630080A680EA809A80A880DA80E280CA803302
:1000730089828A83ECFAE493A3C8C582C8CCC5837A
:10008300CCF0A3C8C582C8CCC583CCDFE9DEE7804A
:100093000D89828A83E493A3F608DFF9ECFAA9F0C9
:1000A300EDFB2289828A83ECFAE0A3C8C582C8CC1F
:1000B300C583CCF0A3C8C582C8CCC583CCDFEADE38
:1000C300E880DB89828A83E493A3F208DFF980CC9A
:1000D30088F0EF60010E4E60C388F0ED2402B40493
:1000E3000050B9F582EB2402B4040050AF2323453A
:0600F3008223900053730C
:1000F900BB010689828A83E0225002E722BBFE0205
:09010900E32289828A83E4932237
:10011200BB010CE58229F582E5833AF583E02250A2
:1001220006E92582F8E622BBFE06E92582F8E222EC
:0D013200E58229F582E5833AF583E4932206
:00000001FF
