:0D00BA0053617469736800506174696C00D3
:08006700C2B5D2B67F027E0093
:10006F00D3EF9400EE9400400F7DFADDFE7DF7DDB7
:08007F00FEEF1F70EB1E80E88C
:010087002256
:0A00D3008F80C2B4120067C2B6228B
:0A00DD008F80D2B4120067C2B62271
:100088007F021200D37F381200D37F0E1200D37F75
:09009800061200D37F010200D31F
:100042008B088A09890AAB08AA09A90A1200A160C9
:1000520013050AE50A7002050914F91200A1FF123C
:0500620000DD80E22238
:100003001200887F0C1200D3E4FC7F801200D37BA4
:10001300FF7A0079BA1200427FC01200D37BFF7AC5
:100023000079C11200427FE87E0312006F7F011244
:0F00330000D37FE87E0312006F0CBC05CD80FE6A
:030000000200C734
:0C00C700787FE4F6D8FD75810A02000382
:1000A100BB010689828A83E0225002E722BBFE025D
:0900B100E32289828A83E4932290
:00000001FF
