:1003C8000D0A20456E746572207468652073656334
:1003D8006F6E647320203A000D0A20456E746572B2
:1003E80020746865204D696E7574652020203A0078
:1003F8000D0A20456E7465722074686520486F7513
:100408007220202020203A000D0A20456E74657263
:1004180020746865204441592020202020203A007B
:100428000D0A20456E7465722074686520446174F5
:100438006520202020203A000D0A20456E74657240
:1004480020746865204D6F6E7468732020203A0010
:100458000D0A20456E7465722074686520594541FF
:100468005220202020203A0054494D453A00504D52
:1004780000414D0053554E444159004D4F4E4441A3
:100488005900545545534441590057454E45534426
:100498004159005448555253444159004652494421
:1004A8004159005341545552444159004F55542025
:0704B8004F462044415900AA
:08076B00C2B5D2B67F027E0088
:10077300D3EF9400EE9400400F7DFADDFE7DF7DDAC
:08078300FEEF1F70EB1E80E881
:01078B00224B
:10065600759850758920EF8EF012057506761C2068
:10066600067B2580067D7080067BE10000000685FE
:10067600758DFC800A8005758DFF8003758DFDD212
:020686008E22C2
:0807E6008F993099FDC29922A0
:0807EE003098FDC298AF99227A
:1006FF008B1E8A1F8920AB1EAA1FA9201204BF6060
:10070F00130520E5207002051F14F91204BFFF1214
:05071F0007E680E22264
:0405A2008E088F0927
:1005A600E4FBE509450870077F301207E680FEC3C5
:1005B600E5086480948050107F2D1207E6C3E49509
:1005C60009F509E49508F508D3E5099400E50864FA
:1005D6008094804029AE08AF097C007D0A12053F51
:1005E600ED2430FFAE030B740A2EF8A607AE08AF53
:1005F600097C007D0A12053F8E088F0980CA1BC33D
:10060600EB648094804013740A2BF8E6FF1207E629
:0A0616007F647E001207731B80E56D
:0106200022B7
:0A07D3008F80C2B412076BC2B62279
:10068800751A008F1BE51AC4F854F0C8E51BC4544A
:0F0698000F482430FF1206A7E51B540F2430FF34
:0A06A7008F80D2B412076BC2B62296
:10078C007F021207D37F381207D37F0E1207D37F55
:09079C00061207D37F010207D306
:100724008B1C8A1D891EAB1CAA1DA91E1204BF6046
:1007340013051EE51E7002051D14F91204BFFF12F5
:0507440006A780E2227F
:0707F600D2A1D2A0C2A02293
:0907DD00C2A1C2A0D2A1D2A02247
:02062100A90727
:100623007D077C00C2A1AF0574017E00A807088086
:1006330005C333CE33CED8F9FFE9FBEF5B6003D3B9
:100643008001C392A0D2A1ED1D70011CBCFFD5BDDA
:02065300FFD2D4
:010655002282
:10074900E4FF7E07D2A130A00D7401A8060880023B
:10075900C333D8FC4207C2A11EC3EE648094805003
:01076900E3AC
:01076A00226C
:0607A5001207F612062106
:0C07AB00C2A1D2A0D2A120A0FDC2A122B8
:0707FD00C2A1D2A0D2A1228B
:0506B100FB7A007FD080
:1006B600AE078B82AA051207A5AF02120621120702
:1006C600ABAF821206211207AB1207DD7F0A7E004E
:0306D600020773A5
:0406D9008D1CAA07C3
:1006DD001207A5AF1C1206211207AB1207F6EA444A
:1006ED0001FF1206211207AB1207491207FD12076F
:0106FD00DD1F
:0106FE0022D9
:10000300E4F51AF51BF51CF51D7BFF7A0379C8127D
:1000130006FF1207EE8F1CE51C640D601DAE1AAFC0
:100023001B7C007D0A1204D8E51C24D0FDEC34FFB0
:10003300CD2FF51BED3EF51A80D8AE1AAF1B7C0011
:100043007D0A1204EAEFC454F0FBAE1AAF1B7C0026
:100053007D0A1204EAEB2DF51DFB7A00E4FD7FD047
:100063001206B6E4F51AF51B7BFF7A0379E0120654
:10007300FF1207EE8F1CE51C640D601DAE1AAF1B4B
:100083007C007D0A1204D8E51C24D0FDEC34FFCD9E
:100093002FF51BED3EF51A80D8AE1AAF1B7C007D01
:1000A3000A1204EAEFC454F0FBAE1AAF1B7C007DC6
:1000B3000A1204EAEB2DF51D7D011206B1E4F51ACF
:1000C300F51B7BFF7A0379F81206FF1207EE8F1CEC
:1000D300E51C640D601DAE1AAF1B7C007D0A120483
:1000E300D8E51C24D0FDEC34FFCD2FF51BED3EF5F8
:1000F3001A80D8AE1AAF1B7C007D0A1204EAEFC443
:1001030054F0FBAE1AAF1B7C007D0A1204EAEB2D00
:10011300F51D7D021206B1E4F51AF51B7BFF7A0487
:1001230079101206FF1207EE8F1CE51C640D601D8B
:10013300AE1AAF1B7C007D0A1204D8E51C24D0FD47
:10014300EC34FFCD2FF51BED3EF51A80D8AE1AAF78
:100153001B7C007D0A1204EAEFC454F0FBAE1AAF15
:100163001B7C007D0A1204EAEB2DF51DFB7A007D52
:10017300037FD01206B6E4F51AF51B7BFF7A0479E8
:10018300281206FF1207EE8F1CE51C640D601DAEDE
:100193001AAF1B7C007D0A1204D8E51C24D0FDECA9
:1001A30034FFCD2FF51BED3EF51A80D8AE1AAF1BE9
:1001B3007C007D0A1204EAEFC454F0FBAE1AAF1BB5
:1001C3007C007D0A1204EAEB2DF51DFB7A007D0409
:1001D3007FD01206B6E4F51AF51B7BFF7A0479404B
:1001E3001206FF1207EE8F1CE51C640D601DAE1A8C
:1001F300AF1B7C007D0A1204D8E51C24D0FDEC342F
:10020300FFCD2FF51BED3EF51A80D8AE1AAF1B7C40
:10021300007D0A1204EAEFC454F0FBAE1AAF1B7C54
:10022300007D0A1204EAEB2DF51DFB7A007D057FA4
:10023300D01206B6E4F51AF51B7BFF7A047958123F
:1002430006FF1207EE8F1CE51C640D601DAE1AAF8E
:100253001B7C007D0A1204D8E51C24D0FDEC34FF7E
:10026300CD2FF51BED3EF51A80D8AE1AAF1B7C00DF
:100273007D0A1204EAEFC454F0FBAE1AAF1B7C00F4
:100283007D0A1204EAEB2DF51DFB7A007D067FD073
:080293001206B6E4F51AF51B92
:01029B002240
:10029C00E4F51AF51B7F801207D37BFF7A04797083
:1002AC001207247D027FD01206D91206887F3A12DB
:1002BC0006A7C3E51B9412E51A94007F8D400B1220
:1002CC0007D37BFF7A04797680091207D37BFF7AF8
:1002DC00047979120724E4F51AF51B7F881207D3E9
:1002EC007D017FD01206D91206887F3A1206A7E448
:1002FC00F51AF51BFD7FD01206D9120688E4F51A03
:10030C00F51B7FC01207D37D047FD01206D91206CD
:10031C00887F2F1206A7E4F51AF51B7D057FD012F6
:10032C0006D91206887F2F1206A7E4F51AF51B7D55
:10033C00067FD01206D91206887D037FD01206D90B
:10034C00751A008F1BE51A7067E51B14B407005073
:10035C005F90036B75F003A4C58325F0C58373020E
:10036C0003800203880203900203980203A0020395
:10037C00A80203B07BFF7A04797C802E7BFF7A0481
:10038C00798380267BFF7A04798A801E7BFF7A042E
:10039C00799280167BFF7A04799B800E7BFF7A041E
:1003AC0079A480067BFF7A0479AB1207240202A1A0
:0C03BC007BFF7A0479B41207240202A12E
:1007B7007F807E2512065612078C12000302029CC8
:030000000207C72D
:0C07C700787FE4F6D8FD7581200207B7AA
:1004BF00BB010689828A83E0225002E722BBFE023B
:0904CF00E32289828A83E493226E
:1004D800EF8DF0A4A8F0CF8CF0A428CE8DF0A42E38
:0204E800FE22F2
:1004EA00BC000BBE0029EF8DF084FFADF022E4CCF6
:1004FA00F875F008EF2FFFEE33FEEC33FCEE9DECBF
:10050A00984005FCEE9DFE0FD5F0E9E4CEFD22ED04
:10051A00F8F5F0EE8420D21CFEADF075F008EF2F4E
:10052A00FFED33FD4007985006D5F0F222C398FD3F
:05053A000FD5F0EA22DC
:10053F00C2D5EC30E709B2D5E4C39DFDE49CFCEED7
:10054F0030E715B2D5E4C39FFFE49EFE1204EAC361
:10055F00E49DFDE49CFC80031204EA30D507C3E45C
:06056F009FFFE49EFE2246
:10057500D083D082F8E4937012740193700DA3A315
:1005850093F8740193F5828883E473740293B5F04C
:0D059500067403936860E9A3A3A3A380D8B4
:00000001FF
