:1003D1000D0A20456E74657220746865207365632B
:1003E1006F6E647320203A000D0A20456E746572A9
:1003F10020746865204D696E7574652020203A006F
:100401000D0A20456E7465722074686520486F7509
:100411007220202020203A000D0A20456E7465725A
:1004210020746865204441592020202020203A0072
:100431000D0A20456E7465722074686520446174EC
:100441006520202020203A000D0A20456E74657237
:1004510020746865204D6F6E7468732020203A0007
:100461000D0A20456E7465722074686520594541F6
:100471005220202020203A0054494D453A00504D49
:1004810000414D0032300053554E444159004D4F0B
:100491004E44415900545545534441590057454E26
:1004A100455344415900544855525344415900461B
:1004B1005249444159005341545552444159004F06
:0A04C1005554204F462044415900D5
:08077700C2B5D2B67F027E007C
:10077F00D3EF9400EE9400400F7DFADDFE7DF7DDA0
:08078F00FEEF1F70EB1E80E875
:01079700223F
:10066200759850758920EF8EF012058106821C2044
:1006720006872580068970800687E10000000691C2
:10068200758DFC800A8005758DFF8003758DFDD206
:020692008E22B6
:0807F2008F993099FDC2992294
:0807FA003098FDC298AF99226E
:10070B008B1E8A1F8920AB1EAA1FA9201204CB6047
:10071B00130520E5207002051F14F91204CBFF12FC
:05072B0007F280E2224C
:0405AE008E088F091B
:1005B200E4FBE509450870077F301207F280FEC3AD
:1005C200E5086480948050107F2D1207F2C3E495F1
:1005D20009F509E49508F508D3E5099400E50864EE
:1005E2008094804029AE08AF097C007D0A12054B39
:1005F200ED2430FFAE030B740A2EF8A607AE08AF47
:10060200097C007D0A12054B8E088F0980CA1BC324
:10061200EB648094804013740A2BF8E6FF1207F211
:0A0622007F647E0012077F1B80E555
:01062C0022AB
:0A07DF008F80C2B4120777C2B62261
:10069400751A008F1BE51AC4F854F0C8E51BC4543E
:0F06A4000F482430FF1206B3E51B540F2430FF1C
:0A06B3008F80D2B4120777C2B6227E
:100798007F021207DF7F381207DF7F0E1207DF7F25
:0907A800061207DF7F010207DFE2
:100730008B1C8A1D891EAB1CAA1DA91E1204CB602E
:1007400013051EE51E7002051D14F91204CBFF12DD
:0507500006B380E22267
:07080200D2A1D2A0C2A02286
:0907E900C2A1C2A0D2A1D2A0223B
:02062D00A9071B
:10062F007D077C00C2A1AF0574017E00A80708807A
:10063F0005C333CE33CED8F9FFE9FBEF5B6003D3AD
:10064F008001C392A0D2A1ED1D70011CBCFFD5BDCE
:02065F00FFD2C8
:010661002276
:10075500E4FF7E07D2A130A00D7401A8060880022F
:10076500C333D8FC4207C2A11EC3EE6480948050F7
:01077500E3A0
:010776002260
:0607B10012080212062DE1
:0C07B700C2A1D2A0D2A120A0FDC2A122AC
:07080900C2A1D2A0D2A1227E
:0506BD00FB7A007FD074
:1006C200AE078B82AA051207B1AF0212062D1207DE
:1006D200B7AF8212062D1207B71207E97F0A7E0012
:0306E20002077F8D
:0406E5008D1CAA07B7
:1006E9001207B1AF1C12062D1207B7120802EA440D
:1006F90001FF12062D1207B7120755120809120732
:01070900E906
:01070A0022CC
:10000300E4F51AF51BF51CF51D7BFF7A0379D11274
:10001300070B1207FA8F1CE51C640D601DAE1AAFA7
:100023001B7C007D0A1204E4E51C24D0FDEC34FFA4
:10003300CD2FF51BED3EF51A80D8AE1AAF1B7C0011
:100043007D0A1204F6EFC454F0FBAE1AAF1B7C001A
:100053007D0A1204F6EB2DF51DFB7A00E4FD7FD03B
:100063001206C2E4F51AF51B7BFF7A0379E912073E
:100073000B1207FA8F1CE51C640D601DAE1AAF1B33
:100083007C007D0A1204E4E51C24D0FDEC34FFCD92
:100093002FF51BED3EF51A80D8AE1AAF1B7C007D01
:1000A3000A1204F6EFC454F0FBAE1AAF1B7C007DBA
:1000B3000A1204F6EB2DF51D7D011206BDE4F51AB7
:1000C300F51B7BFF7A04790112070B1207FA8F1CC9
:1000D300E51C640D601DAE1AAF1B7C007D0A120483
:1000E300E4E51C24D0FDEC34FFCD2FF51BED3EF5EC
:1000F3001A80D8AE1AAF1B7C007D0A1204F6EFC437
:1001030054F0FBAE1AAF1B7C007D0A1204F6EB2DF4
:10011300F51D7D021206BDE4F51AF51B7BFF7A047B
:10012300791912070B1207FA8F1CE51C640D601D69
:10013300AE1AAF1B7C007D0A1204E4E51C24D0FD3B
:10014300EC34FFCD2FF51BED3EF51A80D8AE1AAF78
:100153001B7C007D0A1204F6EFC454F0FBAE1AAF09
:100163001B7C007D0A1204F6EB2DF51DFB7A007D46
:10017300037FD01206C2E4F51AF51B7BFF7A0479DC
:100183003112070B1207FA8F1CE51C640D601DAEBC
:100193001AAF1B7C007D0A1204E4E51C24D0FDEC9D
:1001A30034FFCD2FF51BED3EF51A80D8AE1AAF1BE9
:1001B3007C007D0A1204F6EFC454F0FBAE1AAF1BA9
:1001C3007C007D0A1204F6EB2DF51DFB7A007D04FD
:1001D3007FD01206C2E4F51AF51B7BFF7A04794936
:1001E30012070B1207FA8F1CE51C640D601DAE1A73
:1001F300AF1B7C007D0A1204E4E51C24D0FDEC3423
:10020300FFCD2FF51BED3EF51A80D8AE1AAF1B7C40
:10021300007D0A1204F6EFC454F0FBAE1AAF1B7C48
:10022300007D0A1204F6EB2DF51DFB7A007D057F98
:10023300D01206C2E4F51AF51B7BFF7A047961122A
:10024300070B1207FA8F1CE51C640D601DAE1AAF75
:100253001B7C007D0A1204E4E51C24D0FDEC34FF72
:10026300CD2FF51BED3EF51A80D8AE1AAF1B7C00DF
:100273007D0A1204F6EFC454F0FBAE1AAF1B7C00E8
:100283007D0A1204F6EB2DF51DFB7A007D067FD067
:080293001206C2E4F51AF51B86
:01029B002240
:10029C00E4F51AF51B7F801207DF7BFF7A0479796E
:1002AC001207307D027FD01206E51206947F3A12B7
:1002BC0006B3C3E51B9412E51A94007F8D400B1214
:1002CC0007DF7BFF7A04797F80091207DF7BFF7AD7
:1002DC00047982120730E4F51AF51B7F881207DFC8
:1002EC007D017FD01206E51206947F3A1206B3E424
:1002FC00F51AF51BFD7FD01206E5120694E4F51AEB
:10030C00F51B7FC01207DF7D047FD01206E51206B5
:10031C00947F2F1206B3E4F51AF51B7D057FD012DE
:10032C0006E51206947F2F1206B37BFF7A047985BB
:10033C00120730E4F51AF51B7D067FD01206E51284
:10034C0006947D037FD01206E5751A008F1BE51A03
:10035C007067E51B14B40700505F90037475F003CD
:10036C00A4C58325F0C5837302038902039102039C
:10037C00990203A10203A90203B10203B97BFF7A1C
:10038C00047988802E7BFF7A04798F80267BFF7A14
:10039C00047996801E7BFF7A04799E80167BFF7A07
:1003AC000479A7800E7BFF7A0479B080067BFF7AF4
:1003BC000479B71207300202A17BFF7A0479C012CC
:0503CC0007300202A150
:1007C3007F807E2512066212079812000302029CA4
:030000000207D321
:0C07D300787FE4F6D8FD7581200207C392
:1004CB00BB010689828A83E0225002E722BBFE022F
:0904DB00E32289828A83E4932262
:1004E400EF8DF0A4A8F0CF8CF0A428CE8DF0A42E2C
:0204F400FE22E6
:1004F600BC000BBE0029EF8DF084FFADF022E4CCEA
:10050600F875F008EF2FFFEE33FEEC33FCEE9DECB2
:10051600984005FCEE9DFE0FD5F0E9E4CEFD22EDF8
:10052600F8F5F0EE8420D21CFEADF075F008EF2F42
:10053600FFED33FD4007985006D5F0F222C398FD33
:050546000FD5F0EA22D0
:10054B00C2D5EC30E709B2D5E4C39DFDE49CFCEECB
:10055B0030E715B2D5E4C39FFFE49EFE1204F6C349
:10056B00E49DFDE49CFC80031204F630D507C3E444
:06057B009FFFE49EFE223A
:10058100D083D082F8E4937012740193700DA3A309
:1005910093F8740193F5828883E473740293B5F040
:0D05A100067403936860E9A3A3A3A380D8A8
:00000001FF
